:1000000048100020ED090000DB390000D90900008C
:10001000D9090000D9090000D9090000000000003A
:10002000000000000000000000000000710B000054
:10003000D9090000000000003D0B0000D9090000B4
:10004000CD0C0000CD0C0000CD0C0000CD0C00004C
:10005000CD0C0000CD0C0000CD0C0000CD0C00003C
:10006000CD0C0000CD0C0000CD0C0000CD0C00002C
:10007000CD0C0000CD0C0000CD0C0000CD0C00001C
:10008000CD0C0000CD0C0000CD0C0000CD0C00000C
:10009000CD0C0000CD0C0000CD0C0000CD0C0000FC
:1000A000CD0C0000CD0C0000CD0C0000CD0C0000EC
:1000B000CD0C0000CD0C0000CD0C0000CD0C0000DC
:1000C000CD0C0000CD0C0000CD0C0000CD0C0000CC
:1000D000CD0C0000CD0C0000CD0C0000CD0C0000BC
:1000E000CD0C0000CD0C0000CD0C0000CD0C0000AC
:1000F000CD0C0000CD0C0000CD0C0000CD0C00009C
:100100007BB972B90029BEBF00204FF0004106E064
:1001100008BF00281CBF6FF000414FF0FF3000F017
:100120003FB8ADF1080C6DE904CE002909DB002BC6
:100130001ADB00F037F8DDF804E0DDE9022304B053
:100140007047404261EB4101002B1BDB00F02AF8B5
:10015000DDF804E0DDE9022304B0404261EB410137
:10016000524263EB43037047524263EB430300F098
:1001700019F8DDF804E0DDE9022304B0404261EB48
:1001800041017047524263EB430300F00BF8DDF886
:1001900004E0DDE9022304B0524263EB43037047FD
:1001A000704700BF2DE9F04786468C460846089EFA
:1001B000154674461946002B40F0C2808542B2FABB
:1001C00082F245D94AB1C2F1200300FA02FC2EFAAC
:1001D00003F3954043EA0C0C94404FEA154EA8B245
:1001E000BCFBFEF8230C0EFB18CC08FB00F943EA1D
:1001F0000C43994528D9EB1808F1FF3704D29945EB
:1002000002D9A8F102072B44A3EB0903A4B2B3FB64
:10021000FEFC0EFB1C330CFB00F044EA0344A0423E
:1002200014D92C190CF1FF3304D2A04202D9ACF13D
:1002300002032C44241A43EA07401EB1D440002391
:1002400034607360BDE8F0874746DDE76346F1E759
:1002500092BB431B01214FEA154EAFB2B3FBFEFC2C
:10026000200C0EFB1C330CFB07F840EA03439845B7
:1002700062D9EB180CF1FF3004D2984502D9ACF1E9
:1002800002002B44A3EB0803A4B2B3FBFEFC0EFB5D
:100290001C330CFB07F744EA0344A7424ED92C1940
:1002A0000CF1FF3304D2A74202D9ACF102032C4473
:1002B000E41B43EA0040C0E7C2F1200320FA03F147
:1002C000954090402EFA03F303434FEA154EAFB228
:1002D000B1FBFEFC0EFB1C10190C0CFB07F841EAED
:1002E0000041884504FA02F422D969180CF1FF3064
:1002F00004D2884502D9ACF102002944A1EB0801DF
:100300009BB2B1FBFEFC0EFB1C110CFB07F743EA92
:1003100001439F420ED9EB180CF1FF3104D29F42EA
:1003200002D9ACF102012B44DB1B41EA004192E708
:100330006046E3E76146F7E76046A3E76346B7E751
:10034000834206D916B9002108467BE7C6E900E0DA
:10035000F9E7B3FA83F78FB9834201D3724508D81E
:10036000BEEB020460EB030301209C461EB9002192
:1003700068E73846FAE7C6E9004CF8E7C7F1200C11
:10038000BB4022FA0CF41C432EFA0CF120FA0CF3B9
:10039000B84001434FEA14490EFA07F5B3FBF9F8E8
:1003A0001FFA84FE09FB18300B0C08FB0EFA43EA17
:1003B00000439A4502FA07F240D9E31808F1FF30EA
:1003C00004D29A4502D9A8F102002344A3EB0A0300
:1003D00089B2B3FBF9F809FB183308FB0EFE41EABA
:1003E00003418E452CD9611808F1FF3304D28E45A4
:1003F00002D9A8F10203214443EA0040A0FB02987D
:10040000A1EB0E014145CE46434602D306D14D45F0
:1004100004D2B9EB020E68EB04030138002EA6D01B
:10042000B5EB0E0261EB030101FA0CFC22FA07F3B3
:100430004CEA0303F940C6E9003198E74046C5E7B6
:100440004346D9E7014B1B68184700BF0000002056
:1004500030B585B004460D4610220021684603F0F1
:10046000FFFE02238DF802302A46044B01932146F9
:10047000684602F0D5FE05B030BD00BF450400005F
:1004800080B505460E461746984602F0E3FC034643
:1004900003F052FFDFF81890044649F80030424656
:1004A00030463946A84754F8090000F0F9FA00BF71
:1004B000080000002DE9F047058B04462807904608
:1004C00011D4022905F0070540F0CC80204603F046
:1004D0007EF978B10138218B042811D8DFE800F0CB
:1004E000C2106D85950001290CBF45F0100545F03F
:1004F0002005258388F31188BFF36F8FBDE8F0874F
:1005000001F0070AAA4500F0A5800027B9463E463B
:10051000A368002B00F0BC8041F00801218388F320
:100520001188BFF36F8FA168002900F0BA800D68B1
:10053000002900F0B680D1F80480334652462046A8
:10054000C047002D76D02B6829461D46F0E701F004
:1005500007035A1F012A1BD8002221F00701062B8E
:10056000276889B2C4E9002209D13B4603E0628BC7
:10057000013262831B68002BF9D141F00201218313
:10058000204603F024F900287AD041F0200176E0DB
:10059000042B0AD121F0070189B22183204603F000
:1005A00016F910B141F020012183218B01F0070AD7
:1005B000AA454FD00027B946AAE7236921F00701D1
:1005C00041F00601062DD3F8009021832DD1B9F119
:1005D000000F3FD041F00801218388F31188BFF359
:1005E0006F8F3A492046C84729E021F00701236967
:1005F00041F0040189B2042DD3F804902183E6D0A0
:1006000000273E464FF0040A82E721F007012369E4
:1006100041F0050189B2052DD3F808902183D6D089
:1006200000273E464FF0050A72E700273E464FF08E
:10063000060A6DE72B4687E7B9F1000FD1D1EFF33A
:100640001188202383F31288BFF36F8F238B23F04D
:1006500008032383258BEA062ED525F01003238378
:1006600005F007056669218B002EBFF670AF0023E9
:100670002768C4E9003321F0070141F0010121831B
:10068000218B01F0070AAA454FF000097FF440AF23
:10069000002F9CD041F00801218388F31188BFF31B
:1006A0006F8F002FC8D03D683946334652462046EA
:1006B00003F0B9F82F46F4E7AB067FF51BAF25F042
:1006C0002003238305F0070500E700BF533800002F
:1006D00008B5054803F06EF8044803F06BF8BDE870
:1006E0000840034803F066B85C46000090460000EE
:1006F000C446000030BFFFF7FDBF00BF2DE9F04149
:100700000B4EDFF8308006EB0807CC1B054632465F
:100710000949204603F096FDA01942460021083CF5
:1007200003F09EFD6C6607F10800BDE8F08100BF94
:10073000000000000400000054450000074A9368D0
:1007400093F90E10002907DB526993421FBF044A38
:10075000536843F080535360704700BFAC020020E1
:1007600000ED00E0134B9A6A12F0007F9A6A14BF02
:100770001E201D2012F0807F9A6A18BF1F2012F4DD
:10078000002F9A6A18BF212012F4802F9A6A18BF8E
:10079000222012F4003F9A6A18BF232012F4803FEF
:1007A0009A6A6FEA02426FEA12429A6218BF2420E4
:1007B000704700BF00ED00E010B5194B0246986A83
:1007C0009C6A10F4805F14BF1720162014F4006F89
:1007D0009C6A18BF1820A40509D5986B986A000474
:1007E00004D51AB19A6A22F400429A6219200C4B7D
:1007F0009A6A12F4806F9A6A18BF1A20D2050CD434
:100800009B6A13F4005F18BF1C20054A936A43F4E7
:100810007F43936200230B7010BD1B20F5E700BFE0
:1008200000ED00E010B51C4B0246986A9C6A10F07F
:10083000100F14BF1120102014F0080F9C6A18BF6D
:100840001220A40709D5586B986A000604D51AB17E
:100850009A6A22F080029A6213200F4B9A6A12F071
:10086000010F9A6A18BF142012F0200F9A6A18BF5D
:100870001520D40658BF9B6A074B9A6A920642BF5E
:100880005A6A22F400525A629A6A42F0FF029A624D
:1008900000230B7010BD00BF00ED00E0F0B5474B2A
:1008A0005B688BB00446C3F30803002585F3118809
:1008B000BFF36F8F02F07F40B0F17F4F11D102F094
:1008C0000C0008280DD010074CBF0C460125002253
:1008D000033B8DF80720032B05D8DFE803F02462E3
:1008E000665F2C46F3E700239DF80720CAB902AEE5
:1008F00004F1200720686168324603C20834BC4214
:100900001646F7D1099A002D53D0C2F3080121B938
:100910006FEA52226FEA4222099202A9184603F0B6
:1009200052F80BB0F0BD254BDA6A9107DBD4DA6AD6
:10093000002AD8DBDA6A5200D5D55A69A16942F497
:1009400080725A61BFF34F8FBFF36F8F5A6931F8CE
:10095000021C22F480725A61BFF34F8FBFF36F8F76
:100960004DF60272914209D09A6AD2B242B10DF1AB
:1009700007010120FFF756FF0346B5E72368B3E7F9
:100980009A6A12F47F4F05D00DF107010120FFF79D
:1009900013FFF1E79B6AB3F5803FA4D3FFF7E2FEB4
:1009A000EAE70DF107010020E4E70DF1070100205F
:1009B000EDE722F4FF7222F00102ADE700ED00E066
:1009C000044B5A6942F010025A615A6922F0080237
:1009D0005A61704700ED00E0EFF30880EFF3098102
:1009E00001B57246FFF75AFF01BD00BF002080F33A
:1009F0001488BFF36F8F01F073F800200D49086071
:100A0000BFF34F8F0C4880F3088800F019F82020BE
:100A100080F3118809484FF40061401880F3098879
:100A2000EFF314800221084380F31488BFF36F8F23
:100A300000F0E2F894ED00E04810002008030020E8
:100A400072B6002383F31388144B4FF0FF32C3F8C0
:100A50008020C3F88420C3F88820C3F88C20C3F812
:100A60009020C3F89420C3F89820C3F89C20C3F8C2
:100A70008021C3F88421C3F88821C3F88C21C3F8EE
:100A80009021C3F89421C3F89821C3F89C2162B641
:100A9000BFF34F8FBFF36F8F704700BF00E100E0DF
:100AA000084B9B6883420BD1EFF3058343B1064BA0
:100AB0005A6842F080525A605A6A22F400425A62DE
:100AC00003F085BBAC02002000ED00E0094A93680A
:100AD0006FF00A01D966084998664B6843F0805365
:100AE0004B60002383F31188BFF36F8F9368D86E38
:100AF000704700BFAC02002000ED00E0EFF311836F
:100B0000202383F31288BFF36F8F094A53699360E0
:100B1000084A4FF000615160074A596E1160002188
:100B20009A6E996682F31188BFF36F8F704700BF8A
:100B3000AC02002000ED00E0A80100200B498A680B
:100B40004FF030001044EFF3098C80E8F01F74463A
:100B50007046FFF7D3FFA64604498A6802F13000C9
:100B600090E8F01F8CF3098870470000AC02002069
:100B70001EF0040F0CBFEFF30880EFF309808169CA
:100B800011F8021C0229FFD001B502F022FF01BDBD
:100B900040B2002807DB044A4109012300F01F008E
:100BA000834042F82130704700E100E0054B4209E4
:100BB00000F01F0053F82220012303FA00F0104038
:100BC000704700BF00E100E040B20028A8BF00F17C
:100BD000604001F10101B8BF064B4FEA4111ACBFC3
:100BE00000F5614000F00F00C9B2B4BF195480F89D
:100BF0000013704714ED00E00B4A08B50B4B22F0D0
:100C00007F029A60BFF34F8FBFF36F8FD3F88820B6
:100C100022F47002C3F8882001F09EFC02F0A6F9CD
:100C200000F048F801F0D8FC0000000000ED00E002
:100C300042F8203C009B42F81C3C0A49019B42F8C8
:100C4000183C029B42F8143C21F001014FF08073E4
:100C500042F8043C42F8081C0023203A02658366EF
:100C6000704700BF8104000000B50B4B98600B4B30
:100C70000E46416E196015462C4686F309884FF0E2
:100C80000000074B984720464FF000014FF000024C
:100C90004FF00003034C2047AC020020A8010020C5
:100CA000F139000081040000014B10221A617047E5
:100CB00000ED00E0044800232021C2180133302B4E
:100CC00082F80013F9D1704700E100E008B5EFF3B6
:100CD0000583064A103B02EBC30152F83300496812
:100CE0008847BDE80840FFF729BD00BFD443000096
:100CF00008B50649064821F00701C1F1005202F586
:100D0000003202F018FD002008BD00BF4F10002087
:100D1000AC010020024B0122C3F84025002070479F
:100D200000E0014020B1034B800143F0010318476C
:100D3000704700BF60450000084B70B5C31A0D46F0
:100D400007499B10044659430648402202F07CFEA6
:100D50002B4601462046BDE870401847CC010020D4
:100D6000B76DDBB68443000073B50C4C0C4A4023CE
:100D7000041B00930D460B460A49A4106143064626
:100D8000094802F08DFE011E05DA30462B4602B0FE
:100D9000BDE87040184702B070BD00BFCC01002014
:100DA0000B3B0000B76DDBB68443000010B5EFF3DA
:100DB0001184202383F31288BFF36F8F074A1368CF
:100DC00023F00201DB07116002D4012003F069F86F
:100DD00084F31188BFF36F8F10BD00BF1C02002089
:100DE000002270B5012104461046FFF7EDFE0F48C2
:100DF00000F0E8FE0E4B984215D100F0F3FE266994
:100E00000C49304602F032FD00280BDB0125356429
:100E10002469084904F11C0002F028FD002801DBC8
:100E2000E564002070BD6FF00400FBE7310F0000A7
:100E30000000AD0B684500001FB500220123CDE97D
:100E40000223094ACDF800D06B46CDF804D002F059
:100E500055FE002805DB4FF480420023684601F070
:100E6000FBFC05B05DF804FB293B000030B4104BDF
:100E70000C2202FB003301460020D3E90E52986396
:100E8000EFF31180202484F31288BFF36F8F1C6C62
:100E900004F0C00444F002041C6480F31188BFF322
:100EA0006F8F1DB12B46034830BC184730BC7047CC
:100EB000CC0100208443000010B4EFF31182202302
:100EC00083F31288BFF36F8F1748016841F0020463
:100ED0000460C80707D482F31188BFF36F8F012025
:100EE00010BC00F091BE4FF08041D1F80C04D1F855
:100EF0000C14C907EFD5EFF3118083F31288BFF309
:100F00006F8F0A490B6C03F0C00343F002030B64BC
:100F100080F31188BFF36F8F82F31188BFF36F8F57
:100F2000002010BCFFF7A2BF1C020020CC01002053
:100F300010B1012804D07047034B1B6C5B0701D133
:100F4000FFF794BF704700BFCC010020024AC3B234
:100F50001C2003FB00207047CC0100202DE9F0414C
:100F60003849BFF35B8F0746012251E8003F41E853
:100F700000200028F9D1BFF35B8F33B932493348E1
:100F80004B60CB608A6002F084FC7B1E012B2BD867
:100F9000012F07D14FF08043D3F81C3403F0030333
:100FA000012B21D003F068F80546F8B9284B1B78CF
:100FB000E3B14FF080430222C3F808230646DFF86E
:100FC00094804FF08044D4F81824D4F81834D20315
:100FD00015D503F00303012B01D0012F0FD155B319
:100FE00086F31188BFF36F8FBDE8F081EFF31186B0
:100FF000202383F31288BFF36F8F0125DFE7ADB1A4
:10100000304602F009FDD4F81835002BDBD1D4F8B6
:101010000421002AD7D0C4F80431D4F804310123C4
:10102000C4F81835C8F88031A360CCE7002121202E
:1010300001F0F2FEE7E74FF080430222C3F80423F9
:10104000D2E700BFC8010020B8010020E80100205D
:101050000003002000E100E002780B69012A08D0BB
:10106000022A08D04AB9064A1A6203F1100001F0B8
:10107000CFBB044AF8E7044AF6E7044AF4E700BFA6
:101080000000AD0B0100AE0B0200AE0B0100AD0B7A
:101090002DE9F04F87B00546049343680769D3F8FC
:1010A00028909B8B03930C4690464FF0FF324FF0F5
:1010B000FF33384601F0D0FB07F110030293002301
:1010C000002207F11000002601F0C6FB334646451A
:1010D00001D300234DE0207A010775D4013646453F
:1010E00021680BD2820709D4227D80EA020C0CF021
:1010F000010C02F004025CEA020C08D023B901F0F2
:101100006042B2F1005F1AD04FF0000A01E04FF0E8
:10111000010A6268DDF80CE003EB020CF44556D8D6
:10112000C00705D409EB0300059303F08BF8059B7A
:1011300062681A4493B2BAF1000F2ED113BBD4F8EF
:1011400000B0A3884FF0000A049A217A0092284642
:101150005A4600F061F8031E0BDB4FF48042029800
:10116000002301F079FB80B1284600F035F86FF0DC
:1011700004030293384601F04BFB029B184607B06C
:10118000BDE8F08F9A46CB46DEE73B6A114A9342B0
:10119000EDD1237ADB0702D400230C3497E7CB454B
:1011A000FAD1A34609E0AAEB02011FFA81FADBF8A3
:1011B0000C0019FA81F103F045F8DBF804209245A0
:1011C000ABF10C0BEFD2E7E76FF08503D1E76FF0DF
:1011D0001B03CEE70000AD0B70B544682368D3F85D
:1011E0000855D3F80C65204600F020FE314628460D
:1011F00001F0B4F800210546606A02F0B0FC204618
:1012000000F004FE034B9D4214BF6FF00F0000205E
:1012100070BD00BF0000AD0BF0B587B047680C464D
:101220001646002112220DF106001D4603F018F8A3
:1012300004F001038DF80430BDF830308DF805302E
:10124000BB8D0295AB42049614D384F00202C2F324
:101250004002520101A9384600F006FE084B9842B0
:101260000BD00B33984214BF6FF004006FF00F00E7
:1012700007B0F0BD6FF01B00FAE70020F8E700BFF1
:101280000000AD0B38B545682B6A04469847686A7C
:10129000012102F064FC2346AA6905F108012846F1
:1012A00000F07AFD064B984206D10121204602F05B
:1012B0007CFC00EAE07038BD6FF00400FBE700BF83
:1012C0000000AD0B2DE9F043DFF8CCC0334F002513
:1012D00040F2FF16EBB2994202D80020BDE8F0833D
:1012E00050F8253013F4804FC3F3C324C3F3080828
:1012F00046D1B04517F804E04FEA136429D00B2C0F
:1013000036D1C2F80885BEF1000F08BF4FF0060EB7
:101310005FEA581850F8254003F01F032DD0B8F1AC
:10132000010F33D1E04608EB8303DFF87480D3F874
:10133000009709EA0808C4F3C039C4F34124A400A3
:1013400044EA490444EA0E2444EA0804C3F8004786
:1013500005E00B2C05D14FF0FF33C2F808350135FD
:10136000B8E70C2C0FD14FF0FF33C2F80C35F6E77D
:101370000C2C08D1C2F80C85C5E74FF0A048D2E785
:101380006FF01500AAE76FF08500A7E7002203F5CC
:10139000E07352F82330FFDE000300500E470000D8
:1013A000F0F8FCFF014B01221A60704700C00040BA
:1013B0000C2903690BD15B6A064907484B4393FB31
:1013C000F0F100FB113311605360002070476FF0A3
:1013D0008500704790D0030040420F00044B006925
:1013E0000022C3F80021D3F8003101F011BA00BF88
:1013F00000C000407FB50569AB6A63B33C2901D0EA
:101400000C292BD105F110064FF0FF324FF0FF33BE
:10141000304601F049F9134B0193A86A03230024D5
:1014200069460394029302F034FA4FF0FF324FF012
:10143000FF33284601F010FAA86A02F081FA0A4B3D
:10144000D3F808256A6201225A60304601F0A4F9F7
:10145000204604B070BD6FF00A00FAE76FF0850017
:10146000F7E700BFA513000000C0004010B50469F5
:101470000020FFF76BFDA0624FF0FF3200212046F5
:1014800002F0EEFD04F1100002F0E3FD0022012164
:101490000C20FFF799FB0C20FFF77AFB024B01228F
:1014A000C3F80423002010BD00C0004070B5094DF2
:1014B0000446CE17B423A1FB05015A4305FB0611D0
:1014C0000023FEF71DFE044A0023FEF719FEC4E9BF
:1014D000000270BD705EDF0140420F00F8B5154696
:1014E00004690C2900F2D380DFE801F066858807E3
:1014F000A0A5A98BD1D1D1D1AD00664EB4F9000021
:10150000E188C317A0FB060C06FB03CCC1F1200247
:10151000B1F120030CFA02F220FA01F058BF4CFAA4
:1015200003F340EA020058BF18434CFA01F15A4A4B
:101530000023FEF7E5FDC5E90002B4F90200E188E9
:10154000C317A0FB060C06FB03CCC1F12002B1F1CE
:1015500020030CFA02F220FA01F058BF4CFA03F310
:1015600040EA020058BF18434CFA01F14A4A0023EE
:10157000FEF7C6FDC5E90202B4F90400E188C3170D
:10158000A0FB060706FB0377C1F12002B1F120039F
:1015900020FA01F007FA02F240EA02005CBF47FAC3
:1015A00003F318433C4A002347FA01F1FEF7A8FD74
:1015B000C5E904020020F8BDB4F90000354BE1880C
:1015C000C217A0FB030603FB0266C1F12002C8405C
:1015D00006FA02F2B1F1200340EA020002D446FA10
:1015E00003F318432C4A002346FA01F1FEF788FD65
:1015F000C5E90002DEE7B4F90200DFE7B4F9040050
:10160000DCE7228AB4F90A102846FFF74FFF228A46
:10161000B4F90C1005F10800FFF748FF228AB4F96D
:101620000E1005F11000FFF741FFC3E7228AB4F95D
:101630000A102846F7E7228AB4F90C10F9E7228A43
:10164000B4F90E10F5E7A37CB4F90800012B4FEABA
:10165000E0710FD1114C124AA0FB0406002304FBD9
:101660000161FEF74DFD0F4BC0180B4A41F100011F
:101670000023BBE7084CA0FB040600234FF4AA722A
:1016800004FB0161FEF73CFD074B1818EDE76FF016
:10169000850090E73AA3950040420F0000CA9A3BAC
:1016A0002E180500406F40010051250270B501233E
:1016B00083400E4ABFF35B8FDC4352E8001F01EA10
:1016C000040542E80056002EF7D1BFF35B8F4FF4BC
:1016D000803282400648C0F80823BFF35F8FBFF313
:1016E0006F8F0B4214BF0120002070BD74020020D8
:1016F0000010014070B40E49D1E90034D01AC3186B
:1017000044F1000422F07F46C1E90034A6F500133D
:10171000B3F5400F09D2074B1B681A0A1B069C1928
:10172000054B42F10005C3E9004570BC01F0F8BC6F
:1017300028000020780200203000002011B3BFF301
:101740005B8F0123104A834052E800CF4CEA030C20
:1017500042E800C10029F7D1BFF35B8F0B4A4FF479
:1017600080338340C2F80433094BBFF35B8F1B689F
:10177000BFF35B8FC340DB0742BF064B4FF4003221
:10178000C3F80021704700BF740200200010014020
:101790007002002000E100E00D4B1868010A00060D
:1017A000BFF35F8F0B4BD3F80435181841F10001DC
:1017B000B3F5801F0AD2084BD3E90023904271EBA6
:1017C000030303D210F1807041F10001704700BFA4
:1017D0007802002000100140300000202DE9F04F79
:1017E00085B016461F469DF840A00446FFF75EFFF1
:1017F0000190FFF7D1FFB04271EB070354D23E4B8B
:10180000301A67EB0101984271F100014FD23B4B56
:1018100003EB0413D3E902239F4208BF96425ED034
:1018200037494FF4803804F1500508FA04F8AD0048
:10183000C1F848832046ADB202F0CAFA26F07F4BC9
:1018400005F1804504F5A87305F58835DC464FF0B1
:1018500003090293029A2CF07F4341F82230C1F829
:101860004483D1F80435274A6FF00200C01A60445F
:1018700020F07F40904232D9286868B1D1F8043511
:101880000393A3EB0B0020F07F40B0F5000F26D9A7
:10189000204602F09DFA039BBAF1000F07D109EB35
:1018A000030C09F10109D5E7BAF1000F09D06FF077
:1018B000150520460199FFF741FF284605B0BDE810
:1018C000F08F0123104ABFF35B8FA34052E8000F53
:1018D000184342E800010029F8D1BFF35B8F0749A4
:1018E0000E98230101EB0412C8500F9B5360C2E90C
:1018F00002670025DDE700BF01008000180000201E
:1019000000100140FDFF7F00700200207FB51C4CDD
:101910001C4BC4F80833C4F848331B4B00254FF068
:10192000FF304FF0FF31C4F80855C3E902014FF40E
:101930008033C4F80433154B02264FF400320121E2
:10194000C4F804631120C3F880212A46FFF73CF94C
:101950001120FFF71DF90E4A0123A36023601360D5
:101960000C4B0D4A0093CDE9015500232846FFF7A3
:1019700035FF3046FFF7F2FA284604B070BD00BFCD
:101980000010014003000F001800002000E100E0FB
:1019900074020020F5160000FFFF7F002DE9F743D9
:1019A0002F4CD4F8043399070BD5D4F8043143B144
:1019B0002C4A0023C4F80431D4F8043113680133ED
:1019C0001360D4F80433DA0329D5BFF35B8F264BB9
:1019D00053E8002F22F0010143E800100028F7D15E
:1019E000BFF35B8FD30702D4D4F84031BBB10025DD
:1019F000C4F84051D4F84031FFF7CEFEEFF3118226
:101A0000202383F31288BFF36F8F184BD3E902674B
:101A1000B042B94106D282F31188BFF36F8F03B091
:101A2000BDE8F0834FF0FF384FF0FF39C3E902897A
:101A3000D3E900101D604FF48033C4F84833C4F874
:101A40004051D4F8403182F31188BFF36F8F0029E1
:101A5000E5D0009032463B4628468847DFE700BF86
:101A600000100140780200207002002018000020C1
:101A700030B5431C124C85B005D08442A8BF044643
:101A8000012CB8BF0124FFF787FE0E4B0C4DD3E9A4
:101A90000013401AB0F5000F10D22218AA4228BF36
:101AA0002A4652184FF0000007490091CDE9010085
:101AB00043F10003FFF792FE05B030BD2A46F0E780
:101AC000FFFF7F0028000020F516000008B5FFF793
:101AD00063FE024B1B68C01A08BD00BF280000202F
:101AE0004FF08053D3F830210D2A55D14FF080416B
:101AF0000022C1F80C21C1F81021C1F83825304A64
:101B0000D3F80404C2F82005D3F80804C2F8240569
:101B1000D3F80C04C2F82805D3F81004C2F82C0539
:101B2000D3F81404C2F83005D3F81804C2F8340509
:101B3000D3F81C04C2F84005D3F82004C2F84405C9
:101B4000D3F82404C2F84805D3F82804C2F84C0599
:101B5000D3F82C04C2F85005D3F83004C2F8540569
:101B6000D3F83404C2F86005D3F83804C2F8640529
:101B7000D3F83C04C2F86805D3F84004C2F86C05F9
:101B8000D3F84434C2F87035D1F80034DB0709D5F6
:101B90006FF00103C1F800344FF08053D3F83031B7
:101BA0000D2B0CD14FF08053D3F834313BB14FF0B3
:101BB0001023D3F808224FF08043C3F8582570470C
:101BC00000C00040044B1A7922B9012218601A7132
:101BD00002487047024870477C0200200000AD0BAD
:101BE0000C00AD0B08B5074B1B682BB10020FEF7AE
:101BF000DDFF08B9FEF7CCFF4FF080430022C3F8A9
:101C0000182508BD7C02002010B510B1012843D072
:101C100010BD4FF08043D3F81814D3F81824C8032C
:101C200021D502F00303012B04D013B1002002F0F0
:101C3000DEF800234FF080420220C2F81835082257
:101C40004FF4827303F180430021196002F1804256
:101C50001C6801241460154A12680AB34FF08043CF
:101C6000C3F80403D4E7D3F81424D107E1D5D3F89B
:101C70001C249207DAD40D4A12681AB10222C3F862
:101C80000423C5E7D3F80421002AFBD00022C3F8BF
:101C90000421D3F80431BBE700224FF48073D1E76D
:101CA0001A68002AFCD019601B68B1E77C0200208A
:101CB00010B54FF08043D3F8002152B10020C3F893
:101CC0000001D3F800210122C3F80823104B1B6840
:101CD00098474FF08043D3F8042172B10022C3F833
:101CE0000421D3F80421D3F81824D3F81824920738
:101CF00004D10122C3F818259A6010BD0222C3F84E
:101D00000823034BBDE810401B680120184700BFA3
:101D10007C02002030B500F01F04400911D00128DA
:101D200012D10C4800EB84001B02D0F800570A4C7B
:101D300043EA82022C4042EA41012143C0F80017E5
:101D400030BD4FF0A040EDE704F5E074002353F8F8
:101D50002430FFDE00030050F0F8FCFF10B4CC7B11
:101D60008A6803682CB9D1E90041C3F80845C3F873
:101D70000C15C3F82425037928225343054AD35868
:101D80002BB1006810BC40F30730FEF701BF10BC58
:101D9000704700BF840200202DE9F04190F80480D4
:101DA000164E0746282000FB08F035180C4695F81B
:101DB0002210F1B9A96032506B6085F8251085F8C2
:101DC00024106CB1A37B85F82730204602F09CF8E4
:101DD00088B1637B85F8263021463846FFF7BEFF81
:101DE000282303FB08660648012386F82230BDE855
:101DF000F0810448FBE70448F9E700BF84020020B3
:101E00000000AD0B0C00AD0B0400AD0B03680279B4
:101E10000621C3F80015044B282101FB02330222DE
:101E200083F82220704700BF8402002002790C4B07
:101E3000282101FB02330021996002680948C2F899
:101E40000803D2F8000220F4BC50C2F80002C2F825
:101E50000015012283F8222083F82410704700BF68
:101E60008402002002029C012DE9F84FB04D90F849
:101E700004900468282303FB09539046002283F84A
:101E800023204B680E4633B1CB6803F06043B3F1B7
:101E9000005F40F085813378023B012B06D833691F
:101EA00003F06043B3F1005F40F07A81A14BC4F8C6
:101EB0000833282303FB095393F8241001F0FF0291
:101EC00039B19B68DFF870B2C4F804335846BDE8F6
:101ED000F88F18F0140F0CBF0121002183F8241093
:101EE000317883F82010717883F82110F168D96077
:101EF0007168196131695961B1689961C8F300115C
:101F000083F82510C3F81C807378C4F88835C4F8AA
:101F10006021D4F86031C4F84821D4F84831C4F8BD
:101F20002421D4F82431C4F80421D4F8043118F061
:101F3000010318BF0123C4F8503518F0020318BF7D
:101F40000123C4F84035337809EB890705EBC7074F
:101F5000032B00F2A380DFE803F0799862024FF4CC
:101F60008073C4F80032D7E90323C4F84425C4F8C9
:101F700048350123A3604FF48011204601F0E7FFAC
:101F80000028F8D1D7E90523C4F84425C4F848351A
:101F9000282303FB09534FF480229A60DFF89CB199
:101FA000282202FB09F218F0080AAB5805EB0200E0
:101FB00013D13178032910D0012940F085802160A8
:101FC000002B6ED0282202FB09F27168AA5821B9B1
:101FD000002A00F0BB8001226261282202FB09F284
:101FE000A918AA58002A00F0B18018F0040F1CBFED
:101FF00000228A6018F0400F06D1282202FB095205
:10200000916841F002019160282202FB0952916817
:1020100041F4007191609268C4F8042356E7D7E94F
:102020000323C4F84425C4F84835D7E90523C4F888
:102030003425C4F838354FF48453C4F800320123F2
:102040002362282303FB09530222A6E7D7E90323CF
:1020500018F0200FC4F84425C4F848354FF0280381
:1020600015BF4FF480724FF4007203FB095303FB5A
:10207000095315BFC4F80022C4F800224FF480228F
:1020800002229A600123236288E7D7E90323C4F878
:102090003425C4F838354FF48053CEE7DFF8A0B0CC
:1020A0007EE7026902B961612649DFF89CA02046FB
:1020B00001F04DFF012210F4007F18BF626110EAA9
:1020C0000A0F2049F3D07DE70121A160002B7FF4A6
:1020D00079AF006918B31C4B1AEA030F7FF472AF93
:1020E0001849204601F033FF10F4007F8246F2D0F9
:1020F0004FF08071204601F02AFFD4F8001280B121
:1021000011F4007003D10122226282466261CB0584
:10211000E1D54FF48021204601F019FF04E0616110
:10212000D9E70122226262614FF0000AD3E700BFC3
:102130008402002002029C010B00AD0B0000AD0BDD
:102140000400AD0B02020400020004002821D4F8B0
:10215000C424C4F8C42401FB0955002185F82410C7
:102160008AB11149114B12F0010F14BF8B469B46E7
:10217000013112F0020F18BF8B4612F0040F0C4A07
:1021800018BF9346A2E618F0400F7FF49FAE394681
:10219000204601F088FE054A002808BF934695E6D0
:1021A000DFF810B092E600BF0000AE0B0100AD0BEF
:1021B0000200AE0B0A00AD0B70B55C4D5C4C86B0F6
:1021C0000221284601F0C3FE4FF40071064628465E
:1021D00001F0BDFED8B1E6B9A368C5F80833022303
:1021E000A360A368C5F804334FF08071284601F05E
:1021F000AEFE18B1D5F800329B0503D44B4B01223B
:102200001A625A61012384F8233006B070BD002E93
:1022100057D0E5696E060AD494F823303BB9444997
:10222000424801F040FE80F0010084F8230015F0E0
:10223000040524D13D4B94F82520C3F86051D3F810
:102240006011C3F85C51D3F85C1112B194F82320EB
:1022500052B10022C3F80022A260364AC3F8082314
:10226000354B0822C3F88021238CADF80430E36895
:1022700004932369029363690593A36903932B4A2B
:10228000D2F8C434C2F8C434980749D4590749D4A1
:10229000DA0749D494F823309B00DBB28DF8003084
:1022A00094F825300BB984F82430E3695B0703D533
:1022B00094F82330002BA8D0D4E900316846984721
:1022C000A3E74FF48021284601F041FE94F8203026
:1022D000A3B994F825304BB9C5F80032A360154B6B
:1022E000C5F80833144B0822C3F8802100238DF869
:1022F000043094F821308DF80530B8E74FF40073BE
:10230000C5F8003240F20223A36003F1CE73C5F892
:102310000833A368C5F804330123AB602B6274E76C
:102320000123BBE70223B9E70323B7E700300040EE
:102330008402002002029C0100E100E0036803F037
:102340001F025B09026004D0012B034818BF002064
:1023500070474FF0A040704700030050F7B50646A5
:1023600001F01FFE084601F01CFE01A80196FFF7D0
:10237000E5FF019B2E4D00EB83000C46D0F80037A3
:10238000019440F20D612B400B43C0F8003701A8C7
:10239000FFF7D4FF019B00EB83000127D0F8003743
:1023A0002B400B43C0F80037042001F01EFD092527
:1023B00001A80194FFF7C2FF019AD0F81035D3406D
:1023C000DB0715D401A80196FFF7B8FF019B07FAB8
:1023D00003F3C0F80C35042001F007FD304601F08E
:1023E000E0FD013D042001F000FD15F0FF05DFD107
:1023F00001A80194FFF7A2FF019A01239340C0F8BE
:102400000C35042001F0F1FC204601F0CAFD042047
:1024100001F0EBFC01A80194FFF790FF019AD0F8BE
:1024200010350448D34003F00103C01A03B0F0BDD7
:10243000F0F8FCFF0100AD0B38B5EFF31185202358
:1024400083F31288BFF36F8F064B9C6801F0CEFDBB
:1024500085F31188BFF36F8F2046BDE83840FEF743
:102460001FBB00BFAC02002038B5094B53F8204019
:10247000013053F82050A54200D838BD636823B11D
:10248000204601F0B6FD0834F5E723689847FAE7DF
:102490004446000070B52B4B2B4C2C4D012286B0CE
:1024A00003201A70FFF7E0FFFEF712F901F0BDFDFF
:1024B0000420FFF7D9FF2646AE4204F1300410D3C2
:1024C00000F0ECFB204C224EAC4226D300F0FAFB8D
:1024D00001F003F91F4A137B23F00103137306B0C5
:1024E00070BD54F80C3C059354F8103C049354F818
:1024F000143C039354F8183C029354F81C3C019389
:1025000054F8203C009354E90A2354E90C0100F0EC
:10251000C9F954F8303C5E65CDE7D4E90A23B3F13C
:10252000FF3F08BFB2F1FF3F05D052EA0301206828
:1025300003D101F0A7FD3034C6E73146183000F072
:1025400075FDF8E7000300205445000054450000E5
:1025500091410000A800002008B50348034A00216B
:10256000121A01F05EFD08BD1800002004030020CF
:1025700070B5144E144D1549702386B003FB0066E8
:1025800001220023CDE904230F22CDE90232019379
:10259000142303FB00554FF4A072044602FB001104
:1025A0000B4B0095304600F07DF9737B2C7423F0C3
:1025B00004037373074BEE60013403EBC4236B60B9
:1025C00006B070BD38000020AC020020080B0020CF
:1025D0002D40000008030020BFB50020FFF744FF96
:1025E000294B83F30888294C294E6369294F43F40A
:1025F000007363610025E02384F82230E5772576B7
:102600006576A57684F82050636A43F4E02363621C
:1026100084F82350FEF7D4F9FEF746FB4FF0FF3362
:10262000A362E3621C4BB36040F201129A811D6603
:1026300001F0C8FC0120FFF717FF0220174CFFF73D
:1026400013FF00F05FFB164B7461059301231549DE
:102650000095CDE903534FF480623B46CDE9015527
:10266000204600F01FF9627B064622F00402204655
:10267000627301F043FD2846FFF77AFF3A46314680
:102680002046FEF7F1FA00BF080B002000ED00E045
:10269000AC0200209524000018010020A8000020B2
:1026A0002F470000480C00202DE9F341044617464F
:1026B0001E46EFF31188202383F31288BFF36F8F38
:1026C000C368334A7BB180689168884219D057EA61
:1026D000060318D188F31188BFF36F8F6FF00F00D6
:1026E00002B0BDE8F081916891F90E1021610133CB
:1026F000E3609368A36088F31188BFF36F8F0020B5
:10270000EEE72169F2E791F90E1090F90E30994247
:10271000A8BF19466FF07E029142B8BF11468B42A6
:102720002DDD01F08EFC0546CDE9007619482246E4
:10273000414600F0FFF90028E1D0EFF31186202395
:1027400083F31288BFF36F8FA068D0B1236821692B
:102750009C420AD04BB193F90E309942A8BF19465A
:102760006FF07E039942B8BF194601F06AFC40B190
:102770000848314600F04EFA6FF00A00B0E7002535
:10278000D2E7002DF4D186F31188BFF36F8FF3E702
:10279000AC0200200103002038B58368044663B30F
:1027A000194A926893422BD1C368012B03D9013B8C
:1027B000C360002038BDEFF31185202383F3128816
:1027C000BFF36F8F0169806801F03BFC204601F088
:1027D000E3FCA06058B190F90E2022610022C2668D
:1027E00001F08CFC0948294600F014FAE1E7E060AA
:1027F00085F31188BFF36F8FDBE76FF01500D9E722
:102800004FF0FF30D6E700BFAC02002001030020EC
:1028100038B50446EFF31185202383F31288BFF304
:102820006F8F01F0B9FC48B10022C26601F066FC6E
:1028300029460848BDE8384000F0ECB9D4E9023236
:102840009A4218BF0133A36085F31188BFF36F8FDD
:1028500038BD00BF0103002013B5EFF31181202420
:1028600084F31288BFF36F8F846844B1013C8460A5
:1028700081F31188BFF36F8F002002B010BD52EAC0
:10288000030406D181F31188BFF36F8F6FF00F003F
:10289000F3E7CDE900230246014800F04BF9ECE7ED
:1028A000010300202DE9FF41984600F15803D51D92
:1028B000C0E916330E9B037325F007050423002699
:1028C00043730D440D9B83730F46C0E9066629468A
:1028D0008660C6730446FDF711FF0C9B0293073018
:1028E0000B9B019320F007000A9B00932D1A43468F
:1028F0002A4639462046FEF79BF9054B66659B68DC
:1029000003B11B6E2366284604B0BDE8F08100BF0A
:10291000AC02002038B50D4D2B4653F8184F9C42A1
:1029200000D004B9EC68AB6838B95A7BD20604D140
:10293000A26912B9DA897F2A05D89C4202D02046C2
:1029400000F0BCFA23466B6138BD00BFAC0200202A
:1029500008B590F90D20437B002A014604DA03F004
:102960007F03437301F090FB044B9868431A58426D
:102970005841BDE80840FFF7CDBF00BFAC020020C2
:1029800070B490F90D30427B002B29DBD30627D1A0
:1029900083692BBB134962F07F0242730A4652F8E7
:1029A000184F944218BF2346CC6923B9C0E90024CC
:1029B0002060C8610CE090F90E5093F90E60B542AA
:1029C0000AD0AE4208DD5A68C0E900321060586093
:1029D00070BC0020FFF79EBF9C42E7D01B68E4E775
:1029E00070BC7047AC0200202DE9F041002A427B08
:1029F0000E460CBF10210821114204460FD141EAB6
:102A00000203D20918D1437308291BD00120FFF714
:102A100081FFBFF35F8F637B23F060036373264BFB
:102A20009B68A34241D1EFF30583002B3DD1304693
:102A3000BDE8F041FEF74AB803F07F03437301F0AD
:102A400023FBE1E7A36813B1204601F025FB04F165
:102A5000180001F0DEFBA56D04F15807AF4211D05C
:102A60004FF0000875B1284601F016FB05F118007B
:102A700001F0CFFBC5F86C802846FFF781FFA56DFC
:102A8000AF42EFD10C4DAB689C42BFD1EFF3058351
:102A9000002BBBD00120FFF73DFF084BAB6040F29D
:102AA00001129A8100221A66B3E786F31188BFF3F8
:102AB0006F8FBDE8F08100BFAC020020180100203C
:102AC00070B590F90D20437B002A014604DA03F02B
:102AD0007F03437301F0D8FA4B7B154A63F07F0301
:102AE00010464B7350F8183FD469834208BF002347
:102AF00023B9C1E900042160D1610CE091F90E50C5
:102B000093F90E60B5420ED0AE420CDD5868C1E9B3
:102B10000030016059609068431A5842BDE8704027
:102B20005841FFF7F7BE9C42E3D01B68E0E700BFC7
:102B3000AC020020F8B5124B0C461146114A9868B9
:102B40001060DDE90676EFF31182202282F312880D
:102B5000BFF36F8F9D68284601F0A8FAB6F1FF3FDA
:102B600008BFB7F1FF3F06D007493A46334605F1A3
:102B7000180000F05BFA2046BDE8F840FDF7A6BF5C
:102B8000AC020020CC02002091410000F8B50446C0
:102B9000EFF31186202383F31288BFF36F8F437BFB
:102BA000DA0649B219D18569BDB903F07F034373D1
:102BB00001F06AFA437B164A817363F07F03437323
:102BC000134653F8180F984218BF0546D0695DB9EF
:102BD000C4E900300460D46111E0A173002086F3E1
:102BE0001188BFF36F8FF8BD95F90E70B9420BD005
:102BF0008F4209DD6B68C4E900531C606C600120E2
:102C0000FFF788FE0120EAE7A842E1D02D68DEE761
:102C1000AC02002049B9EFF3058030B9054B5A6981
:102C20009B689A4201D0FDF751BF81F31188BFF331
:102C30006F8F7047AC02002010B5EFF31184202293
:102C400082F31288BFF36F8F427B510704D484F361
:102C50001188BFF36F8F10BD22F004024273FFF79B
:102C60008FFE21460248BDE81040FFF7D3BF00BFEA
:102C700001030020034648B9EFF3058232B9064A42
:102C800051699268914201D0FDF720BF83F311880A
:102C9000BFF36F8F704700BFAC020020EFF31181CC
:102CA000202383F31288BFF36F8F054B9A68D37B81
:102CB000013BD37381F31188BFF36F8F704700BF5F
:102CC000AC02002038B5EFF31185202484F312887C
:102CD000BFF36F8F0A4B9A68D37B0133D373002005
:102CE000FFF718FE85F31188BFF36F8FEFF31180A4
:102CF00084F31288BFF36F8FBDE83840FFF7BABF87
:102D0000AC020020024B03F11802C3E9062270470F
:102D1000AC020020F8B5EFF31185202383F312886D
:102D2000BFF36F8F19498868437B03F07F034373B8
:102D300001F0AAF98B685A7B084662F07F025A7349
:102D400050F8182FCC69824208BF002222B9C3E98B
:102D500000042360CB610CE093F90E6092F90E70D1
:102D6000BE420ED0B7420CDD5168C3E900210B60B2
:102D700053600120FFF7CEFD2846BDE8F840FDF77F
:102D8000A5BEA242E3D01268E0E700BFAC0200207B
:102D900050EA01032DE9F04105460E4603D1FFF745
:102DA000B9FF00202BE0831C71F1FF3329DB01F018
:102DB00045FA2C18EFF31188202383F31288BFF310
:102DC0006F8F124F124BB8681860FFF7C1FDB868DB
:102DD00010492A463346183000F028F9BA68537B68
:102DE00043F0100353734046FDF770FE01F026FADE
:102DF000201A63EB0303012873F10003D1DBBDE864
:102E0000F0816FF00104241AD4E700BFAC02002067
:102E1000CC02002091410000B1F1FF3F08BFB0F1AA
:102E2000FF3F08B506D10A4B986801F076F94FF0DC
:102E3000FF3008BDFFF7ACFF4FF47A7147F6FF7320
:102E40000022C0FB0132D80B40EA4240F1E700BF4C
:102E5000AC020020014B9868704700BFAC02002014
:102E6000044BC01A044BC0105843044B01221A549F
:102E7000704700BF88010020ABAAAAAA0103002066
:102E8000C3897F2B12D80A4B1B6863B1094B90F999
:102E90000E201B689A4209DB437BDB0606D1064BFA
:102EA000C31A18BF012303F0010070470023FAE79B
:102EB000D4020020D00200203800002070B50E4B54
:102EC0000E4C1E7C06EB460304EBC304054620466D
:102ED00001F09FF90A4B002228469A55FFF7D0FFD0
:102EE00048B1084B08491A68013A2046D317BDE893
:102EF000704000F09BB870BDAC020020880100203B
:102F000001030020D4020020612E000038B5EFF349
:102F10001185202383F31288BFF36F8F104B114A62
:102F20009C681068A04206D1FFF7C8FF85F311889E
:102F3000BFF36F8F38BD00211B7C11600A4AD35C40
:102F4000002BF3D02046FFF79BFF0028EED0637BD9
:102F5000DB0602D12046FFF7B3FD2046E4E700BFC1
:102F6000AC020020CC0200200103002008B5064876
:102F7000064A0749121A01F056F8BDE80840054A0A
:102F80000549064801F04FB8000000201400002059
:102F900044470000000000004447000000000020FB
:102FA000034B1B680BB9FEF791BD0020704700BFB3
:102FB000D802002030B570B10B4B5B6898420AD044
:102FC000036843B1D3E90421D0E90445121941EB68
:102FD0000501C3E90421D0E9003213605A600023DF
:102FE000C0E9003330BD00BF0400002010B50E4B17
:102FF0001C689C4204D1FFF7D3FF6FF0004010BD66
:10300000FFF7CEFF002CF8D0D4E904321B1A62EB94
:10301000E072B3F1004F72F10001EEDA002AACBFAA
:1030200018460020EBE700BF04000020B3F1FF3F8B
:1030300008BFB2F1FF3FF8B504461D4616465ED004
:103040008160EFF31187202383F31288BFF36F8F22
:10305000013275F1FF3324DA2E49D1E900206FF0F7
:1030600001039B1A4FF0FF3262EB00009E1B60EBE6
:103070000500012E70F1000301DA01260020C4E9E9
:103080000460254ED6F800C07568B44508BF4FF0FF
:10309000000CBCF1000F0DD1C4E900652C60746018
:1030A0001CE0FFF77DFF013645F10005361845EBC2
:1030B000E070E4E7DCE90420D4E90431934271EBE9
:1030C000000E1DDAD21ADCF8043060EB0100CCE906
:1030D0000420C4E900C31C60CCF804403368B34248
:1030E00009D09C4207D10D4B1C6824B9FFF77EFF25
:1030F0002146FEF7BDFC87F31188BFF36F8FF8BD43
:103100009B1A61EB0001AC45C4E90431C4D0DCF882
:1031100000C0BEE7A001002004000020D80200206B
:103120002DE9F84FEFF3118C202383F31288BFF3BE
:103130006F8FDFF8B0A0DFF8B0902C4FC9F8000017
:10314000DAF800000024504508BF00200025D7E928
:103150000021D9F80030E04678B3D0E9046C4FEA9A
:10316000E37EB3427EEB0C0B05DAF61A6CEB0E0431
:10317000C0E9046421E0B21841EBE671C0E90445FE
:10318000C7E90021FFF716FF88F31188BFF36F8F9F
:1031900083689847EFF31188202383F31288BFF3E5
:1031A0006F8FD9F80030DAF800009B1B5045C446F9
:1031B000C9F80030CBD1D7E900219A1841EBE3736D
:1031C0000024C7E90023C9F80040FFF70FFF21469C
:1031D000FEF74EFC88F31188BFF36F8FBDE8F84F00
:1031E000FFF794BE04000020D8020020A0010020B8
:1031F00010B5EFF31184202383F31288BFF36F8F90
:10320000FFF7CEFE054A0346D2E90001181841EB4C
:10321000E37184F31188BFF36F8F10BDA00100200C
:103220002DE9F04F8DB043680293837815469A07D5
:10323000804640F10D8100240E78002E00F00A81B6
:10324000252E0BD04B1C03930134029B4146304684
:1032500098470028C0F2F6800399EDE74E788B1C62
:10326000252E0393F0D00027B946BB46BBF11F0FB4
:1032700038D8A6F12003102B0AD8DFE803F02A097A
:1032800009300909092109090928092D09091F001F
:10329000A6F13003092B33D92A2E37D11BF0400F6A
:1032A00055F8043B40F08280002BA7BF4BF0200B69
:1032B0009946C3F100094BF0280B01E04BF0010BDC
:1032C000039B13F8016B0393002ECFD130E04BF03A
:1032D000020B4BF0040BF3E74BF0080BF0E74BF05D
:1032E000100BEDE7BBF17F0F19D8A6F13003092BC6
:1032F000D2D81BF0400F03D00A2101FB0737DFE7CC
:103300000A2101FB09394BF0200BD9E72E2E06D1FB
:103310001BF0400F40F09E804BF0400BD0E76C2E2E
:1033200031D02BD8682E36D06A2E3CD04C2E3AD0D5
:10333000002F46F02003B8BF2BF04002A3F1650137
:10334000BCBF1FFA82FB0027022901D9612B2FD1B4
:10335000073525F00705DFF8ACA2083507271BF075
:10336000080F66D00AEB070B56465E4563D1A4EB07
:103370000A0A06EB0A02A9EB07096FE1742E9FD037
:103380007A2E9DD0D4E71BF0800F18BF4BF4007B42
:103390004BF0800B94E71BF4807F18BF4BF4007B4D
:1033A0004BF4807B8CE74BF4207B89E71F4687E753
:1033B000A6F16301122900F2F080DFE811F013009A
:1033C0004F00EE00EE00EE00EE004F00EE00EE00CB
:1033D000EE00EE00EE00FE00E900EE00EE001B0045
:1033E000EE00AF0055F8043B8DF8183001270DF1C1
:1033F000180AB4E755F804AB834BBAF1000F08BFC5
:103400009A461BF0400F14BF39464FF0FF3150462B
:1034100000F02EFF0746A2E7029B41462020984776
:1034200000280FDB013EB742F6D34C44A41BB14643
:1034300098E74E46F7E716F8010B029B414698477E
:10344000002892DA98F8023043F0040388F802303A
:103450004FF0FF3420460DB0BDE8F08F1BF0800F19
:1034600034D01BF4007F2CD0073525F00705AA4681
:1034700069685AF8080B2BF010050029ADB237DA4D
:10348000404261EB410145F480650DF1180B0A23C0
:103490005A4600F0F9FEA0EB0B0301936B0662D5D0
:1034A000019B25F001019F4289B240F3A180002ECB
:1034B00000F0998015F0100240F09C80BB460D464C
:1034C00023E0AA465AF8040BC117D4E7AA461BF416
:1034D000807F5AF8041B01D10846F5E71BF4007FF2
:1034E00015BF48B208B241F3C01141F3C031C2E781
:1034F00050EA0103C9D11BF0400FC6D0002FC4D140
:103500002BF0110295B2BB46019740F2064115EA35
:1035100001021CBF0BF1010B00222CE02BF010026A
:103520001FFA82FB0A231BF0800C49D01BF40071A8
:103530001DBF073525F00705AA46AA461ABF5AF847
:10354000080B69685AF8040B50EA010545D12BF0C5
:1035500016051BF0400FADB242D0002F40D12BF02A
:10356000170295B2019715F0100248D0019B002E6A
:1035700042D103F1010B29075AD4EB0706D5D945EF
:103580006FDD0199A9EB0B035F18CB465B4649E061
:103590004BF0100B10237826C5E7782B04D1C6F129
:1035A000780343F01003BEE7029B4146252098476D
:1035B0000028FFF647AF023447E608230026B2E7AB
:1035C000AA461BF480715AF8040BBDD01BF400719D
:1035D0001ABFC0B2614680B2B6E72BF0060295B2C0
:1035E0000DF1180B54E725F01105ADB2BB468CE781
:1035F0000D46B8E73B460D4603F1020BBBE7DDF88D
:1036000004B082E73B47000034470000CDE90432B4
:103610004146029B202098470028FFF613AF049BE9
:10362000059A01339945F1DCA4EB0B01CC189B46BC
:103630000AB3029B4146302098470028FFF602AFAC
:103640008EB901342744019B391B994224DC1D4665
:103650005DBB019AA9EB0B092244554614469144DF
:1036600035E0019F92E7023441463046029B98477D
:103670000028E7DAE6E640F206410D42E2D015F016
:10368000020F14BF2B20202015F4806F04F10104D9
:10369000414618BF2D20E9E7029B4146302098475C
:1036A000002804F10104CEDACCE606AB013D414628
:1036B000585D029B98470028CADAC3E6029B414640
:1036C00020209847002804F10104FFF6BBAEA9EBC7
:1036D0000403002BF2DCBFE570470020704700EBCD
:1036E000C100408840087047F8B50346FFF7F7FF70
:1036F000B0FA80F0C0F11F0003EB800CCA00DCF8C8
:103700001060171D0C4606328DB256B9012101FA20
:1037100000F0D9680143D960CCF81040DD539D52C8
:10372000F8BDF1000431585AD85303EBC0009E5243
:10373000C5805D52F4E7043A2DE9F041CC1D1144F7
:1037400024F0070421F007010E1BF708B7FA87F2EF
:10375000C2F12405AD004FF000080735C2F1200288
:10376000ED0804604146A760C4F80C80920004F1A3
:10377000100000F075FD6B0043F00103638004EB63
:10378000C5027B1B5900A4F800805180A21924F8BF
:103790003550A2F80280A35304EBC70329465A8888
:1037A00042F001025A802046BDE8F041FFF79CBF7D
:1037B000002070470FB407B504A951F8040B01911C
:1037C000FCF746FE03B05DF804EB04B07047038BD2
:1037D00013F0070305D10368002B0CBF0020032062
:1037E0007047022B05D1408BB0FA80F04009800071
:1037F0007047012B05D10368002B0CBF002005206A
:1038000070470020704710B50C4600B111B96FF039
:10381000150010BD081D00F0B7F80028F9D1A36805
:10382000032BF6D9F3E72DE9F0410D46074619467B
:10383000281D90461E4600F0B8F8044638B13346BD
:10384000424629463846A446BDE8F0416047BDE8F7
:10385000F08110B4EFF31182202484F31288BFF3B7
:103860006F8F416110BC0121FCF724BE38B50C46B6
:10387000054658B151B10B6843B14B6833B11C22B6
:10388000002100F0EDFC2C61002038BD6FF0150028
:10389000FBE770B505460E46FFF7B5FF041E14DBC7
:1038A000EFF31182202383F31288BFF36F8F6B8BAA
:1038B0002C8B4FF6FF718B4204F0070407D182F383
:1038C0001188BFF36F8F6FF00A04204670BD022C81
:1038D0000CD101336B8382F31188BFF36F8F002308
:1038E000224631462846FFF79EFFEEE7062C14D805
:1038F000DFE804F004131313041A040000233360F8
:103900006B683BB9C5E90066ACB902212846FCF7F3
:10391000D1FDDAE71E606E60F6E782F31188BFF32F
:103920006F8F6FF00404D0E782F31188BFF36F8FBD
:103930006FF08504C9E782F31188BFF36F8FC4E786
:1039400010B5EFF31182202383F31288BFF36F8F3A
:10395000048B04F00704022C0AD0012C0CBF6FF07A
:1039600004006FF0850082F31188BFF36F8F08E0C9
:10397000438B013B9BB2438323B92146FCF79AFD5D
:10398000204610BD2046EEE7034658B1426802F0DB
:103990000302012A03D0032A04D1026812B10020D5
:1039A000986070476FF0150070474268816002F0C0
:1039B0000302032A4FF0000203460CBF00681046C2
:1039C0005A6070477047012801D1EFF30583FEF775
:1039D00033BD01460068FFF7F6BF08B5FCF78AFE65
:1039E000BDE80840FCF7AABE00210120FFF7EBBFAD
:1039F00061B662B680F31188BFF36F8F704772B6FD
:103A0000002383F31188BFF36F8FBFF34F8F30BF55
:103A100062B6BFF36F8F704772B6002383F31188CD
:103A2000BFF36F8FBFF34F8F20BF80F31188BFF3B9
:103A30006F8F62B670470369C9B20C2201FB023373
:103A4000186C00F00700704770B5C9B20369EFF356
:103A50001185202484F31288BFF36F8F0C2606FB98
:103A60000134246C14F0C00408D0A24206D085F3BF
:103A70001188BFF36F8F4FF0FF3070BD06FB01332D
:103A800001221A6485F31188BFF36F8F436803EB3B
:103A9000C1035B6898470020EFE78022FFF7D4BF9F
:103AA000F8B5069F0469C9B2EFF31186202585F3A6
:103AB0001288BFF36F8F0C2505FB0144256C05F0C0
:103AC000070CBCF1010F0CD1276486F31188BFF3FA
:103AD0006F8FC4E90E23436853F8313098470020B4
:103AE000F8BD05F0C005AF4286F31188BFF36F8FB4
:103AF0000CBF6FF077004FF0FF30F1E713B5802473
:103B00000094FFF7CDFF02B010BD10B40069CBB236
:103B10001C2403FB0400002110BC10470020FEF70A
:103B200073B8002000F0BDB91046FEF771BE002248
:103B300001210320FDF748B838B504460569012284
:103B40001146284600F08CFA012205F110000021F0
:103B500000F086FA2046BDE83840FDF793BB13B568
:103B600001AA044600F03AF8002805DB019B226810
:103B700019791868FDF7A6FB02B010BDCA074368A3
:103B800005D4C1F34201012904D0022909D06FF004
:103B9000150070471B684FF0CC72C3F82425002035
:103BA00070471B684FF0C862F7E710B5446851B121
:103BB000012910D1606A0021FFF7D1FF2046FEF7EE
:103BC00025F9002010BD2046FEF730F9606A01217A
:103BD000FFF7C5FFF5E76FF08500F3E730B5436801
:103BE0001360057A446804EBC504A34202D36FF066
:103BF000010030BD5C798C4201D00833F0E7002031
:103C0000F7E710B586B0009203930122089B01925A
:103C10000493002207238DF808208DF814309DF8B6
:103C20001430826843F002038DF8143094680B4618
:103C300002226946A04706B010BD10B5436804696A
:103C40009988186888B03B238DF80F300E230093B5
:103C50000DF10F0204ABFFF7D4FF00281EDBBDF807
:103C600010305BBA2380BDF812305BBA6380BDF8B8
:103C700014305BBAA380BDF816305BBA2381BDF85F
:103C800018305BBA6381BDF81A305BBAA381BDF806
:103C90001C305BBAE381002008B010BD6FF0040057
:103CA000FAE72DE9F04344680669206889B000F01E
:103CB0008AF9002800F08680752301252068A188F4
:103CC0008DF8143000950DF10E0305AAFFF799FF4A
:103CD000002804DA6FF0040009B0BDE8F0839DF815
:103CE0000E30682B6CD0712B6AD0192B68D0702BDA
:103CF0006BD12B46B374256894F8049001274FF0DC
:103D00006B0800970DF10F0305AA494628468DF868
:103D10001480FFF776FFE8B99DF80F305A061BD5DF
:103D200023F040038DF8113004AB059302238DF886
:103D3000108006938DF81C309DF81C30AA6843F063
:103D400002038DF81C30D2F808804B463A4605A98C
:103D50002846C0470028BDDB02251C2204AF20688E
:103D6000A388ADF81020059706958DF81C509DF896
:103D70001C2081682A438DF81C20D1F8088001227C
:103D800005A9C0470028A5DB0E23F3801B2220686D
:103D9000A388ADF81020CDE905758DF81C509DF86D
:103DA0001C2081682A438DF81C208C68012205A9FB
:103DB000A04700288EDB40F21E53338200208BE7A1
:103DC000002397E76FF0120086E76FF0150083E796
:103DD00000F150039B009BB203F1804303F588334D
:103DE00000221A601B687047004700F0E7B8F7B57B
:103DF000044618B1012824D003B0F0BD4FF0804331
:103E00000222C3F808230122DA60C3F80401D3F8C0
:103E10000431064601238DF8073042F210754FF049
:103E20008047DCB1012CE7D1D7F80C3403F48033A0
:103E30008EBB002BE0D00120FFF7D7FF013DF3D16F
:103E4000DAE74FF080430022C3F808035860C3F854
:103E50000021D3F800310DF10706DBE7D7F818345D
:103E600003F480333EB9002BC6D00120FFF7BDFF1D
:103E7000013DF3D1C0E7D7F8182402F00302326005
:103E8000002BB9D09DF807000128B5D1FFF7ADFF91
:103E9000013DC6D1B0E7D7F80C2402F00102327020
:103EA000EEE7FFF7A4BF91F820200346032A29D8A4
:103EB000DFE802F0212519028A68500304D5D3F8FF
:103EC0004C250869904207D18A6852031AD4D3F866
:103ED0004C258969914215D000200622C3F80005BF
:103EE000C3F800257047D3F84C2508699042F3D1F8
:103EF000D3F83C25EDE7D3F84C250969EAE7D3F878
:103F00003C25FAE70120704738B5857B04465DB94A
:103F10000068062303222946FDF7FCFE606806239D
:103F200003222946FDF7F6FE012038BD30B5A2F583
:103F30008075AD080124AC400C4207D0815829B1EE
:103F40000021815082581A6822431A6030BD13B58F
:103F500000230C4601934FF4A47201ABFFF7E6FF78
:103F600021464FF48272FFF7E1FF21464FF492722F
:103F7000FFF7DCFF21464FF4A872FFF7D7FF214679
:103F80004FF4A672FFF7D2FF21464FF4B072FFF74D
:103F9000CDFF4FF4AE722146FFF7C8FF019802B083
:103FA00010BD07B5019001A8FEF7C8F9019A0123D9
:103FB0009340C0F8083503B05DF804FB08B1FCF786
:103FC000B1BE7047704740B1C368587810F0010027
:103FD0001EBF1878B0FA80F040097047EFF31183E4
:103FE000202383F31288BFF36F8FFEE708B5FFF736
:103FF000F5FF10B5D0E9003433B90020E2685378FA
:1040000043F00103537010BD204698470028F4D0B8
:104010000028B8BF4042E368FF28A8BFFF201870FF
:10402000ECE700F01DB900F00DB9704708B5202489
:10403000EFF3118384F31288BFF36F8FFFF7DFFC78
:10404000F6E790F90E308B4201D0FEF79FBD0020BD
:10405000704703460020C3E90200C3E900337047FC
:104060003AB18A4205D3C0E90212C0E9000000203B
:1040700070476FF015007047EFF30580003818BFE8
:1040800001207047FEF7D8BDD0E9003213605A60B6
:104090000023C0E90033704708B5FFF7F5FF437B05
:1040A00023F0020343730023836008BD38B5044640
:1040B0000D46FEF74DFC637B43F002036373E5B1ED
:1040C000A5602B689D4209D16B68C4E900531C6050
:1040D0006C6012E06A689A42F6D01B68002BF3D03D
:1040E00094F90E2093F90E108A42F3D09142F1DD3B
:1040F0005A68C4E9003214605C6038BD10B5EFF353
:104100001184202383F31288BFF36F8FFEF738FCEE
:1041100084F31188BFF36F8F10BD10B504461830BB
:1041200000F077F8EFF31181202383F31288BFF3B7
:104130006F8F627B12F0100204D081F31188BFF3FD
:104140006F8F10BD2046BDE81040FEF74DBC38B55E
:104150000446EFF31185202383F31288BFF36F8F9A
:10416000437B13F0280F0BD183680BB1FFF794FF4B
:10417000637B51B903F0FB0363732046FEF700FC39
:1041800085F31188BFF36F8F38BD03F0EB03F3E7BE
:1041900001211838FFF7DBBF38B5EFF31185202375
:1041A00083F31288BFF36F8F0468A0420DD034B13F
:1041B0002046FFF771FF04F1180000F02AF885F39C
:1041C0001188BFF36F8F204638BD0024F7E7EFF367
:1041D0001181202282F31288BFF36F8F027BD207F6
:1041E0000CD581F31188BFF36F8F002383F31188FF
:1041F000BFF36F8F0423184602DF7047437B1B0712
:1042000004D581F31188BFF36F8F70470122FEF749
:10421000EBBB10B5EFF31184202282F31288BFF3B9
:104220006F8F03683BB1FEF7C5FE002084F3118851
:10423000BFF36F8F10BD6FF01500F7E708B5FEF7FD
:10424000D7FF08BD0A44914200F1FF3300D1704707
:1042500010B511F8014B03F8014F9142F9D110BD8F
:1042600002440346934200D1704703F8011BF9E76B
:1042700010B5024601448A42134603D01C7801322D
:10428000002CF8D1181A10BDF0B5C3F13707044659
:10429000FFB203F01F031046082BE6B233D0102BF9
:1042A0003ED06508A40844EA817445EAC1752D1919
:1042B0004FEA910242EB5102290941EA02716D185D
:1042C00042EB1212290A41EA02616D1842EB1222F6
:1042D000290C41EA02416D1842EB1242AD1842F13D
:1042E0000002EC0844EA4274D10804EB8402A6EB15
:1042F0004205EDB2092D0CD90134A5F10A0541F1B1
:104300000001EDB212E0E40844EA417406F007054A
:10431000C908303554EA010200F8015BBCD1F0BD98
:10432000240944EA017406F00F050909092D84BF28
:10433000ED19EDB2EDE7000001480068704700009C
:04434000A8010020B0
:0843440060BEFF7F01000000D4
:10434C00150D000000000000E10D0000844300008A
:10435C000D19000000000000F10C0000000000002E
:10436C00393B0000984300006D140000AC43000082
:08437C00A33C0000C043000057
:10438400F246000074450000844500000C00002043
:10439400CC01002001470000A0450000EC450000CE
:1043A4000E0000202002002016470000000000003C
:1043B40004460000100000204402002024470000AE
:1043C400204600002846000012000020DC020020E5
:1043D400B11C0000E93D000000000000E9390000C4
:1043E40000000000E9390000B9210000E93D0000A7
:1043F40000000000E939000000000000E939000075
:1044040000000000E939000000000000E939000064
:1044140000000000E939000000000000E939000054
:1044240000000000E939000000000000E939000044
:10443400AC430000DD13000000000000E939000077
:1044440000000000E939000000000000E939000024
:1044540000000000E9390000000000009D19000080
:1044640000000000E939000000000000E939000004
:1044740000000000E939000000000000E9390000F4
:1044840000000000E939000000000000E9390000E4
:1044940000000000E939000000000000E9390000D4
:1044A40000000000E939000000000000E9390000C4
:1044B40000000000E939000000000000E9390000B4
:1044C40000000000E939000000000000E9390000A4
:1044D40000000000E939000000000000E939000094
:1044E40000000000E939000000000000E939000084
:1044F40000000000E939000000000000E939000074
:1045040000000000E939000000000000E939000063
:1045140000000000E939000000000000E939000053
:1045240000000000E939000000000000E939000043
:1045340000000000E939000000000000E939000033
:1045440000000000E939000000000000E939000023
:0C455400FFFFFFFFFFFFFFFFFFFFFFFF67
:104560000338FDD870470000690D0000390D0000C8
:1045700000000000B90E0000AD0D00001D3B000062
:10458000233B0000390E00009B3A0000FD3A00007A
:1045900000000000373A00000000000000000000AA
:1045A000003000400000000000000000000000009B
:1045B00000009801000001015910000010000000E7
:1045C0002F3B0000D0450000F0020020FFFF00005C
:1045D00000300040DC45000001000000E445000020
:1045E000020000001C00000B1D00000C7D3B0000C1
:1045F000000000009110000000000000000000001A
:10460000D9110000000000000000000000000000C0
:10461000F5130000B11300000000000000000000CE
:104620009843000068000000000000000000000047
:10463000000000003B3C0000DD1400000000000012
:10464000000000004C4300004C4300005C430000AD
:104650006443000084430000844300002A2A2A2087
:10466000426F6F74696E67204D79204170706C697C
:10467000636174696F6E2076312E302E302D636544
:1046800034653831313939613739202A2A2A0A000C
:104690002A2A2A205573696E67206E524620436F7E
:1046A0006E6E6563742053444B2076322E382E395B
:1046B000392D356131363539303035636630202A51
:1046C0002A2A0A002A2A2A205573696E67205A6509
:1046D00070687972204F532076332E372E39392D5A
:1046E000386263363238643839343563202A2A2AEE
:1046F0000A00636C6F636B403430303030303030E0
:1047000000693263403430303033303030000001E3
:1047100002030405060774656D7040343030306361
:10472000303030006D707536303530403638006DC1
:1047300061696E00286E756C6C29002A666C6F6169
:04474000742A0000D7
:0C474400B1370000040000200400002039
:08475000000000000000000061
:0447580015E015E073
:04000003000009ED03
:00000001FF
